:020000040800F2
:10000000000003202D060008790600087906000884
:10001000790600087906000879060008000000004B
:100020000000000000000000000000007906000849
:10003000790600080000000079060008790600082B
:100040007906000879060008790600087906000894
:100050007906000879060008790600087906000884
:100060007906000879060008790600087906000874
:100070007906000879060008790600087906000864
:100080007906000879060008790600087906000854
:100090007906000879060008790600087906000844
:1000A0007906000879060008790600087906000834
:1000B0007906000879060008790600087906000824
:1000C0007906000879060008790600087906000814
:1000D0007906000879060008790600087906000804
:1000E00079060008790600087906000879060008F4
:1000F00079060008790600087906000879060008E4
:1001000079060008790600087906000879060008D3
:1001100079060008790600087906000879060008C3
:1001200079060008790600087906000879060008B3
:1001300079060008790600087906000879060008A3
:100140007906000879060008790600087906000893
:100150007906000879060008790600087906000883
:100160007906000879060008790600087906000873
:1001700079060008790600087906000800000000EA
:100180007906000879060008790600087906000853
:100190007906000879060008790600087906000843
:0C01A000790600087906000879060008BE
:1001AC000348044B834202D0034B03B118477047FA
:1001BC000000002000000020000000000548064B55
:1001CC001B1AD90F01EBA301491002D0034B03B149
:1001DC0018477047000000200000002000000000BD
:1001EC0010B5064C237843B9FFF7DAFF044B13B173
:1001FC000448AFF300800123237010BD00000020E1
:10020C0000000000C406000808B5054B1BB10549E9
:10021C000548AFF30080BDE80840FFF7CFBF00BF33
:10022C000000000004000020C40600082DE9F04F77
:10023C0083B000F0EFF800F00DF900F02BF900F0AE
:10024C004BF90027BB46BA46B946B84601973D461E
:10025C003C4690E001344CF2503000F091F990E0C3
:10026C00694ED6F8183443F48043C6F81834019814
:10027C0000F0B6F9D6F8183443F08043C6F81834B9
:10028C00019800F0ADF900F087F9012866D002283A
:10029C0066D05D4BD3F8103813F0080F6BD06B1E83
:1002AC00052B00F2AE80DFE803F05D828B949DA6F7
:1002BC00554ED6F8183443F08003C6F8183440462F
:1002CC0000F08EF9D6F8183443F40003C6F818344D
:1002DC00404600F085F9D6E74C4EB36943F0010374
:1002EC00B361484600F07CF9B36943F48033B361E1
:1002FC00484600F075F9C6E7434EB36943F0200356
:10030C00B361504600F06CF9B36943F40013B36168
:10031C00504600F065F9B6E73D4EB36943F0200353
:10032C00B361584600F05CF9B36943F40013B36150
:10033C00584600F055F9A6E7354EB36943F400432F
:10034C00B361384600F04CF9B36943F00043B36134
:10035C00384600F045F996E7002494E7013C98E70D
:10036C00013596E7019B012B1ED9002301934CF21A
:10037C00503000F005F9244B1B6913F0080F7FF483
:10038C0069AF631E052BE7D801A252F823F000BF1A
:10039C006D020008BD020008E50200080503000814
:1003AC00250300084503000801330193DFE7B8F18A
:1003BC00010F02D94FF00008D9E708F10108D6E780
:1003CC00B9F1010F02D94FF00009D0E709F1010989
:1003DC00CDE7BAF1010F02D94FF0000AC7E70AF1D5
:1003EC00010AC4E7BBF1010F02D94FF0000BBEE7C5
:1003FC000BF1010BBBE7012F01D90027B7E7013740
:10040C00B5E70025B3E700BF00000240000402403E
:10041C00001402400D4AD2F8303843F00703C2F8FA
:10042C0030380B4BD3F8002442F48042C3F800243C
:10043C00D3F8082442F48042C3F80824D3F81824D3
:10044C0042F40002C3F81824704700BF0030024089
:10045C00000002400D4AD2F8303843F00703C2F8CE
:10046C0030380B4BD3F8002442F08052C3F80024F0
:10047C00D3F8082442F08052C3F80824D3F8182487
:10048C0042F08042C3F81824704700BF003002408D
:10049C00000002400E4AD2F8303843F00703C2F88D
:1004AC0030380C4B9A6842F480429A609A6942F454
:1004BC0000229A61D3F8082842F48042C3F8082835
:1004CC00D3F8182842F40022C3F81828704700BF4C
:1004DC000030024000000240274A136B43F0260311
:1004EC001363264B1A6842F001021A609A6842F0B4
:1004FC0001029A60A3F580631A6842F480621A6064
:10050C009A6842F480629A609A6942F400129A6185
:10051C0003F5A0531A6842F040021A609A6842F040
:10052C0040029A609A6942F400229A611A6842F475
:10053C0080621A609A6842F480629A609A6942F406
:10054C0000129A611A6842F480121A609A6842F496
:10055C0080129A609A6942F080629A611A6842F03D
:10056C0080421A609A6842F080429A609A6942F01E
:10057C0000429A61704700BF0038024000040240FC
:10058C0082B0019002E0019B013B0193019B002B87
:10059C00F9D102B070470000104B186910F0080038
:1005AC000AD170476420FFF7EBFF0C4B1B6913F06B
:1005BC00080FF7D1022010E010B50024074B1B697F
:1005CC0013F0080F08D06420FFF7DAFF64344CF204
:1005DC004F339C42F2D9E8E7012010BD00140240D1
:1005EC0000B583B00190019B43B1019B012B09D055
:1005FC00019B022B0AD003B05DF804FB0648FFF701
:10060C00BFFFF2E70548FFF7BBFFF1E74AF6C870FA
:10061C00FFF7B6FFEFE700BF20BF0200905F0100BD
:10062C00DFF830D00C480D490D4A002302E0D458B5
:10063C00C4500433C4188C42F9D30A4A0A4C002320
:10064C0001E013600432A242FBD300F011F8FFF773
:10065C00EDFD70470000032000000020000000208A
:10066C00E4060008000000201C000020FEE700004B
:10067C0070B50D4D0D4C641BA4100026A64209D17B
:10068C000B4D0C4C00F018F8641BA4100026A6426D
:10069C0005D170BD55F8043B98470136EEE755F887
:1006AC00043B98470136F2E7DC060008DC0600083C
:1006BC00DC060008E0060008F8B500BFF8BC08BC72
:1006CC009E467047F8B500BFF8BC08BC9E46704704
:0406DC0015020008FB
:0406E000ED01000820
:040000050800062DBC
:00000001FF
