:020000040800F2
:1000000000000320F10900083D0A00083D0A00082D
:100010003D0A00083D0A00083D0A000800000000F3
:100020000000000000000000000000003D0A000881
:100030003D0A0008000000003D0A0008E109000830
:100040003D0A00083D0A00083D0A00083D0A000874
:100050003D0A00083D0A00087D0900083D0A000825
:100060003D0A00083D0A00083D0A00083D0A000854
:100070003D0A00083D0A00083D0A00083D0A000844
:100080003D0A00083D0A00083D0A00083D0A000834
:100090003D0A00083D0A00083D0A00089D090008C5
:1000A0003D0A00083D0A00083D0A00083D0A000814
:1000B0003D0A00083D0A00083D0A00083D0A000804
:1000C0003D0A00083D0A00083D0A00083D0A0008F4
:1000D0003D0A00083D0A00083D0A00083D0A0008E4
:1000E000BD0900083D0A00083D0A00083D0A000855
:1000F0003D0A00083D0A00083D0A00083D0A0008C4
:100100003D0A00083D0A00083D0A00083D0A0008B3
:100110003D0A00083D0A00083D0A00083D0A0008A3
:100120003D0A00083D0A00083D0A00083D0A000893
:100130003D0A00083D0A00083D0A00083D0A000883
:100140003D0A00083D0A00083D0A00083D0A000873
:100150003D0A00083D0A00083D0A00083D0A000863
:100160003D0A00083D0A00083D0A00083D0A000853
:100170003D0A00083D0A00083D0A00080000000092
:100180003D0A00083D0A00083D0A00083D0A000833
:100190003D0A00083D0A00083D0A00083D0A000823
:0C01A0003D0A00083D0A00083D0A000866
:1001AC000348044B834202D0034B03B118477047FA
:1001BC000800002008000020000000000548064B45
:1001CC001B1AD90F01EBA301491002D0034B03B149
:1001DC0018477047080000200800002000000000AD
:1001EC0010B5064C237843B9FFF7DAFF044B13B173
:1001FC000448AFF300800123237010BD08000020D9
:10020C0000000000880A000808B5054B1BB1054921
:10021C000548AFF30080BDE80840FFF7CFBF00BF33
:10022C00000000000C000020880A000870B500F0E7
:10023C0027F900F09BFA00F049FA00F0A9F900F058
:10024C00B5FA7E4B19687E4A11601A687D4B1A60AC
:10025C00002306E0794A11687B4A42F823100133E7
:10026C00DBB2052BF6D90020784B187000F078FB28
:10027C007AE00024764B1C70764A1378B3FA83F339
:10028C005B09137000F092FA704B1C706B4D2A686E
:10029C006B4B1A60204600F063FB00F087FA204697
:1002AC0000F0BEFA6C4B01221A702A68654B1A607A
:1002BC0020460CE0614B1A68634B43F82020674BD7
:1002CC0001221A54664B00221A540130C0B2052880
:1002DC00F0D9644B00221A704AE0594B1A605B4A01
:1002EC00137801336048A0FB0310800800EB40003A
:1002FC004100581AC0B2107000F032FB48E04F4B6E
:10030C001D68554B1878052800F295804D4B1B68DD
:10031C00EB1A40F6B73293424FD8544B1B788BB143
:10032C00524B00221A704F4B18784D4C235C013302
:10033C00A2F15532A2FB031202F4FF7101EB52023F
:10034C009B1A23544A4B1B7873B1494B00221A70E9
:10035C0044490A780132444BA3FB02039B0803EB8C
:10036C0043035800131A0B70394B1B78002B80D1A8
:10037C00384B1B78002BC2D1304B1A683D4B197887
:10038C003D4B53F821102E4B1B68D31A8B42A4D231
:10039C00364B1B78002BE7D0344B00221A703548B3
:1003AC0003780133A2F15532A2FB031202F4FF7160
:1003BC0001EB52029B1A0370D6E700F031FA264A81
:1003CC0013780133DBB213701E4A1560062BA4D1CF
:1003DC0000230AE01C4A42F82350204A0121D15440
:1003EC001F4A0021D1540133DBB2052BF2D994E71B
:1003FC00204600F015FA194B01221A550134E4B2CB
:10040C00052C8AD8164B1A5D1C4B53F822200E4B28
:10041C0053F82430EB1A9342F0D30B4B43F824508F
:10042C000E4B1B5D002BE3D0204600F049FA0B4B22
:10043C0000221A55E2E70024E2E700BF600000202A
:10044C004800002040000020280000204C00002024
:10045C00660000205700002044000020000000200F
:10046C005000002024000020ABAAAAAA650000209E
:10047C006400002056000020AC0A0008A00A000806
:10048C003E4A136B43F0250313633D4B1A6842F04D
:10049C0001021A609A6842F001029A60394A1368A4
:1004AC0043F001031360936843F001039360936975
:1004BC0043F480339361344B196841F480611960C3
:1004CC00996841F480619960996941F400119961CE
:1004DC00196841F080611960996841F080619960F8
:1004EC00996941F0005199612849086840F0400031
:1004FC000860886840F040008860886940F40020FB
:10050C008861116841F040011160916841F040012F
:10051C009160916941F4002191611A6842F04002A6
:10052C001A609A6842F040029A609A6942F400227A
:10053C009A611A6842F480121A609A6842F4801226
:10054C009A609A6942F080629A611A6842F08072ED
:10055C001A609A6842F080729A609A6942F08052EE
:10056C009A611A6842F080421A609A6842F080429E
:10057C009A609A6942F000429A61704700380240D2
:10058C000004024000080240001402400000024037
:10059C004B4B1A6842F400221A609A6842F44022CB
:1005AC009A605A6A22F0F0025A62A3F500631A6844
:1005BC0042F400321A609A6842F440329A605A6AE5
:1005CC0022F00F025A623F4A136823F0F80343F0FB
:1005DC0080031360002393603A4B9B6813F00C0F5D
:1005EC00FAD1384A136823F080731360354B1B68BB
:1005FC0013F0007FFAD1334A136823F410231360ED
:10060C00304B1B6813F4003FFAD12E4B1A6822F4BE
:10061C0080221A601A6822F001021A601A6842F4E9
:10062C0080321A60274B1B6813F4003FFAD0254B1D
:10063C001A6842F400221A6000225A605A6842F486
:10064C0080025A605A6842F004025A605A6842F4B6
:10065C00B4425A605A6842F480325A605A6842F086
:10066C0070625A609A6842F002029A609A689A60C4
:10067C009A6842F4A0529A609A6842F400429A60D6
:10068C009A6842F4C0029A609A6822F040429A60DA
:10069C009A6842F0C0629A609A6842F040529A603E
:1006AC0009490A6842F005020A601A6842F0807231
:1006BC001A60044B1B6813F0007FFAD0704700BF20
:1006CC000008024000380240003C0240244A536CAF
:1006DC0043F480435364A2F58032536943F05003D2
:1006EC005361204B196841F400511960996841F429
:1006FC0000519960D96821F40051D960916841F09A
:10070C0002019160196841F001011960996841F08A
:10071C0001019960D96821F00101D960D16841F0DB
:10072C005001D1601A6842F020021A609A6842F0B7
:10073C0020029A60DA6822F02002DA600A4B20224A
:10074C0083F828234FF480725A60302283F80623F2
:10075C0040221A6083F817234FF400021A60704786
:10076C0000380240003C014000E100E04FF0E02383
:10077C001A6922F001021A611A6942F002021A6126
:10078C001A6942F004021A615A6902F07F42064962
:10079C000A435A619A6902F07F420A439A611A69C4
:1007AC0042F001021A6170471FBF0200144A93699C
:1007BC0043F40023936102F50062936943F4002330
:1007CC009361104B9A6942F400229A619A6942F043
:1007DC0080629A619A6942F080529A619A6942F0F9
:1007EC0000429A610023084A1370084A1370084AA1
:1007FC001370084A1370084A1370084A1370704734
:10080C0000000240001402405D0000205C0000204B
:10081C005B0000205A0000205900002058000020E6
:10082C00052839D8DFE800F0030C151E27301B4AC9
:10083C00936943F008039361194B01221A707047B6
:10084C00184A936943F008039361174B01221A70FD
:10085C007047164A936943F008039361144B0122C5
:10086C001A707047114A936943F480639361114B7A
:10087C0001221A7070470D4A936943F480539361B7
:10088C000D4B01221A707047084A936943F40043D8
:10089C0093610A4B01221A70704700BF000002409E
:1008AC005D000020000802405C00002000140240A3
:1008BC005B0000205A000020590000205800002046
:1008CC00052839D8DFE800F0030C151E27301B4A29
:1008DC00936943F400239361194B00221A707047FB
:1008EC00184A936943F400239361174B00221A7042
:1008FC007047164A936943F400239361144B00220A
:10090C001A707047114A936943F080639361114BDD
:10091C0000221A7070470D4A936943F0805393611B
:10092C000D4B00221A707047084A936943F000433C
:10093C0093610A4B00221A70704700BF00000240FE
:10094C005D000020000802405C0000200014024002
:10095C005B0000205A0000205900002058000020A5
:10096C0010B50446FFF722FF2046FFF759FF10BDD4
:10097C00054B5B6913F0010F04D00123034A13707C
:10098C00014A5361704700BF003C014066000020E3
:10099C00054B5B6913F0200F05D0044B01221A7034
:1009AC00014B20225A617047003C01406500002039
:1009BC00064B5B6913F4005F06D0054B01221A70DD
:1009CC00024B4FF400525A61704700BF003C01408B
:1009DC0064000020024A136801331360704700BFA3
:1009EC0060000020DFF830D00C480D490D4A002380
:1009FC0002E0D458C4500433C4188C42F9D30A4AC8
:100A0C000A4C002301E013600432A242FBD300F035
:100A1C0011F8FFF70BFC70470000032000000020CA
:100A2C0008000020C00A0008080000206800002010
:100A3C00FEE7000070B50D4D0D4C641BA410002694
:100A4C00A64209D10B4D0C4C00F018F8641BA410F5
:100A5C000026A64205D170BD55F8043B98470136D7
:100A6C00EEE755F8043B98470136F2E7B80A000860
:100A7C00B80A0008B80A0008BC0A0008F8B500BF9C
:100A8C00F8BC08BC9E467047F8B500BFF8BC08BC63
:040A9C009E467047BB
:100AA000C40900002B0200004D0100008206000076
:080AB00001030000A001000099
:040AB800150200081B
:040ABC00ED01000840
:080AC000010101010101000028
:04000005080009F1F5
:00000001FF
